:100000000C9434000C9446000C9446000C9446006A
:100010000C9446000C9446000C9446000C94460048
:100020000C9446000C9446000C9446000C94460038
:100030000C9446000C9446000C9446000C94460028
:100040000C9446000C9446000C9446000C94460018
:100050000C9446000C9446000C9446000C94460008
:100060000C9446000C94460011241FBECFEFD8E03C
:10007000DEBFCDBF21E0A0E0B1E001C01D92A630FF
:10008000B207E1F70E9490000C9409010C94000063
:10009000F894092E000CAA0BBB0B9C01AD0184E067
:1000A000220F331F441F551F8A95D1F760E074E279
:1000B00084EF90E00E94E700215031093093C500A1
:1000C0002093C40088E18093C10086E08093C20041
:1000D000E0ECF0E080818D7F8083789408959091AA
:1000E000C00095FFFCCF8093C60008950F931F9327
:1000F000CF93DF93EC018C010D5F1F4F89910E941C
:100100006F00C017D107D1F7DF91CF911F910F91E9
:1001100008958091C00087FFFCCF8091C6000895AC
:10012000CF93DF9300D01F92CDB7DEB780E895E282
:100130000E944800259A01E010E080910001909112
:100140000101892BA1F50E9489008B3529F41093B8
:10015000050100930401F1CF2091040130910501C4
:100160008D35A9F02130310541F720910201309100
:100170000301E1E0F0E0EC0FFD1FE20FF31F8083CD
:100180002F5F3F4F3093030120930201D6CF2130E0
:10019000310599F610920501109204013093010186
:1001A000209300011092030110920201C6CF8981B1
:1001B000813441F48B81813309F42D9A8B81803312
:1001C00009F415B81092010110920001B6CFA1E216
:1001D0001A2EAA1BBB1BFD010DC0AA1FBB1FEE1FC1
:1001E000FF1FA217B307E407F50720F0A21BB30B0C
:1001F000E40BF50B661F771F881F991F1A9469F788
:1002000060957095809590959B01AC01BD01CF01E3
:060210000895F894FFCFF1
:00000001FF
