:100000006FC0000088C0000086C0000084C00000EF
:1000100082C0000080C000007EC000007CC00000E4
:100020007AC0000078C0000076C0000003C3000062
:1000300072C0000070C000006EC000006CC0000004
:100040006AC0000068C0000066C0000064C0000014
:1000500062C0000060C000005EC000005DC0000023
:100060005AC0000058C0000056C0000054C0000034
:1000700052C000001603520065006C006100790058
:1000800042006F0061007200640000001203500023
:100090006F006C0079007400650063006800000068
:1000A0000403090409022900020100C0FA0904003E
:1000B0000001FF0000000705810308000509040195
:1000C0000001FF00000007050203080005120110EF
:1000D00001FF0000080405012200020102030100E3
:1000E00011241FBECFEFD2E0DEBFCDBF11E0A0E0F4
:1000F000B1E0ECE6FAE002C005900D92A631B1073E
:10010000D9F721E0A6E1B1E001C01D92A332B20708
:10011000E1F793D0A9C474CF1F920F920FB60F923C
:1001200011248F938091CE008093160181E08093FB
:1001300014018F910F900FBE0F901F9018959C0186
:100140002B5F3F4FFC014191CF015091C80055FFFB
:10015000FCCF4093CE0082179307A1F7089587E65E
:1001600090E09093CD008093CC0086E08093CA000D
:100170001092C800E9ECF0E088E18083539A5A9A23
:100180008081806880838AB180638AB944C280910B
:1001900014018823A9F081E08093E9008091E800B0
:1001A00085FF0CC040E050E061E070E086E191E046
:1001B00079D08091E8008E778093E8001092140146
:1001C000089582E08093E9008091E80082FF20C0DA
:1001D0008091E80085FF1CC08091F100823469F0B5
:1001E00028F4813481F48FE091E00CC0833441F035
:1001F000843449F480E091E005C085E091E002C0DC
:100200008AE091E09CDF8091E8008B778093E800A2
:1002100008958EB3843011F4BADFD3CF089542E04D
:1002200061EC81E03CD142E060EC82E038D1E2EE6A
:10023000F0E0808184608083089591DF7894FBD31F
:10024000E8DFFDCF292F33272230310559F0233045
:10025000310569F021303105E9F482E190E02DECBF
:1002600030E01CC089E290E024EA30E017C0992712
:100270008130910549F028F0029761F4E4E7F0E05D
:1002800005C0E0EAF0E002C0ECE8F0E0849190E024
:100290009F0104C080E090E020E030E0FA0131836B
:1002A00020830895CF92DF92EF92FF920F931F93D6
:1002B000CF93DF93EC018B017A0143D1811133C0DD
:1002C000E114F10439F0F70180819181081B190BC9
:1002D000C80FD91FC12CD12C0115110519F180911E
:1002E000E80085FD16C08091E8008E778093E800D5
:1002F000A2D3E114F10449F0F70180819181C80E85
:10030000D91ED182C08285E00EC01BD1882321F383
:100310000AC089918093F10001501109FFEFCF1AB3
:10032000DF0ADACF80E0DF91CF911F910F91FF902C
:10033000EF90DF90CF90089520912101309122011C
:100340002617370748F06115710539F42091E80048
:100350002E772093E80001C0B901FC0120E061156F
:10036000710559F18EB38823D1F18530D1F1809197
:10037000E80083FD38C08091E80082FD2AC08091AA
:10038000E80080FFECCF8091F20090E061157105EC
:1003900051F08830910538F421912093F10061509B
:1003A00071090196F3CF21E0089709F020E08091D0
:1003B000E8008E778093E800D2CF2111D3CF09C017
:1003C0008EB3882361F0853061F08091E80083FD71
:1003D0000AC08091E80082FFF3CF80E0089582E0B8
:1003E000089583E0089581E00895209121013091DE
:1003F00022012617370748F06115710539F420915D
:10040000E8002E772093E80001C0B901FC0120E04C
:100410006115710561F18EB38823D9F18530D9F169
:100420008091E80083FD39C08091E80082FD2BC0F7
:100430008091E80080FFECCF8091F20090E06115A0
:10044000710559F08830910540F424912093F10012
:100450003196615071090196F2CF21E0089709F0B9
:1004600020E08091E8008E778093E800D1CF2111C1
:10047000D2CF09C08EB3882361F0853061F08091BE
:10048000E80083FD0AC08091E80082FFF3CF80E09E
:10049000089582E0089583E0089581E00895982FFB
:1004A000953068F59093E900981739F07091EC0059
:1004B0002091ED005091F00003C0242F762F50E0E2
:1004C00021FD02C09F5FECCF3091EB003E7F309367
:1004D000EB003091ED003D7F3093ED003091EB006B
:1004E00031603093EB007093EC002093ED0050935B
:1004F000F0002091EE0027FDE5CF80E008958F7099
:100500008093E90081E0089580911B0187FF0FC06F
:100510008091E80082FD04C08EB38111F9CF10C034
:100520008091E8008B770AC08EB3882349F08091D0
:10053000E80080FFF9CF8091E8008E778093E80093
:1005400008952091E4003091E50095E64091EC009B
:10055000842F817040FF22C08091E80080FD1CC084
:100560008EB3882399F0853099F08091EB0085FD5A
:1005700011C04091E4005091E5002417350731F394
:10058000915011F09A01E2CF84E0089582E008953D
:1005900083E0089581E0089580E008954091E800A7
:1005A00042FFDECF089540D042D08091D8008F77AF
:1005B0008093D8008091D80080688093D800809183
:1005C000D8008F7D8093D80084E089BD86E089BD06
:1005D00009B400FEFDCF1EBA109217011092190146
:1005E0001092180142E060E080E059DF8091E10064
:1005F0008E7F8093E1008091E20081608093E20031
:100600008091E20088608093E2008091E0008E7F1C
:100610008093E0000895E3E6F0E080818E7F8083A0
:1006200081E080931A01BFCF1092E20008951092EA
:10063000E10008951F920F920FB60F9211242F938D
:100640003F934F935F936F937F938F939F93AF935A
:10065000BF93EF93FF938091E10082FF0AC08091E6
:10066000E20082FF06C08091E1008B7F8093E10071
:10067000E1D18091E10080FF16C08091E20080FF0F
:1006800012C08091E2008E7F8093E2008091E200B0
:1006900080618093E2008091D80080628093D800CE
:1006A00019BC1EBAC7D18091E10084FF2EC0809191
:1006B000E20084FF2AC084E089BD86E089BD09B4D8
:1006C00000FEFDCF8091D8008F7D8093D80080916F
:1006D000E1008F7E8093E1008091E2008F7E809325
:1006E000E2008091E20081608093E2008091170136
:1006F000882311F084E007C08091E30087FD02C0E9
:1007000081E001C083E08EBB95D18091E10083FF41
:1007100021C08091E20083FF1DC08091E100877FAE
:100720008093E10082E08EBB109217018091E1007E
:100730008E7F8093E1008091E2008E7F8093E200C3
:100740008091E20080618093E20042E060E080E01E
:10075000A6DE70D1FF91EF91BF91AF919F918F91E4
:100760007F916F915F914F913F912F910F900FBEAD
:100770000F901F9018951F93CF93DF93CDB7DEB7DF
:10078000AA970FB6F894DEBF0FBECDBFEBE1F1E044
:100790008091F100819321E0E332F207C9F74AD159
:1007A0008091E80083FF2EC180911B0190911C0174
:1007B000953009F483C030F49130A9F168F093309A
:1007C00091F120C1983009F4EEC0993009F4FAC0D3
:1007D000963009F017C193C0803821F0823809F0B3
:1007E00011C108C08091180190911901992389F0D5
:1007F00082600FC080911F018F70853008F002C1A8
:100800008093E9008091EB0085FB882780F91092A6
:10081000E9009091E800977F9093E8008093F100C1
:100820001092F100CBC0282F2D7F09F0EBC0882358
:1008300019F0823061F0E6C080911D01813009F02D
:10084000E1C0933009F080E0809319012EC08091BF
:100850001D0181112AC080911F018F702FEF280F79
:10086000243008F0CFC08093E9002091EB0020FFF6
:100870001CC0933021F48091EB00806214C09091F1
:10088000EB0090619093EB0021E030E0A90102C001
:10089000440F551F8A95E2F74093EA001092EA0050
:1008A0008091EB0088608093EB001092E9008091CA
:1008B000E800877F8093E80027DEA4C08111A2C0F2
:1008C00010911D011F778091E3008078812B809328
:1008D000E3008091E800877F8093E80015DE809137
:1008E000E80080FFFCCF8091E30080688093E30004
:1008F000111102C082E001C083E08EBB83C080582A
:10090000823008F07FC080911D0190911E018C3DC6
:1009100053E0950771F583E08A838AE289834FB7B4
:10092000F894DE01139620E03EE051E2E32FF0E080
:1009300050935700E49120FF03C0E295EF703F5FB2
:10094000EF708E2F90E0EA3010F0C79601C0C0968D
:100950008D939D932F5F243149F74FBF8091E8001D
:10096000877F8093E8006AE270E0CE010196E4DCC4
:1009700014C060911F0170912001AE014F5F5F4F65
:1009800061DCBC01892B09F43DC09091E800977FA0
:100990009093E80089819A8128DD8091E8008B7727
:1009A0008093E8002FC0803869F58091E800877F48
:1009B0008093E800809117018093F1008091E80016
:1009C0008E7778CF81111EC080911D0190911E01FC
:1009D00099270297BCF48091E800877F8093E80014
:1009E00080911D01809317018FDD80911701811186
:1009F00006C08091E30087FD02C081E001C084E071
:100A00008EBB0DDC8091E80083FF0AC08091E80076
:100A1000877F8093E8008091EB0080628093EB00F9
:100A2000AA960FB6F894DEBF0FBECDBFDF91CF916F
:100A30001F9108950895CF938EB3882399F0C091A4
:100A4000E900CF709091EC00892F817090FD80E8D3
:100A5000C82B1092E9008091E80083FD8CDECF70F6
:0C0A6000C093E900CF910895F894FFCFF7
:100A6C005B422D305D5B412D305D5B422D315D5B1A
:060A7C00412D315D010077
:00000001FF
